S0160000547261666669635F6C69676874732E7372656365
S11300000C943E000C9461010C9450000C9450002C
S11300100C9450000C9450000C9450000C9450001C
S11300200C9450000C9450000C9450000C94AA02B0
S11300300C9450000C9450000C9450000C945000FC
S11300400C9450000C9450000C9450000C945000EC
S11300500C945000C7003201320132013201CA004F
S1130060D500E000EB00F60001013201320132015B
S113007032010401070112011D01280111241FBED0
S1130080CFE5D8E0DEBFCDBF20E0A0E6B0E001C000
S11300901D92A436B207E1F70E9456010C94D702D0
S11300A00C9400000E948C020E94A30260E081E490
S11300B00E94370161E081E40E94370162E081E43B
S11300C00E94370160E082E40E94370161E082E42B
S11300D00E94370162E082E40E94370162E084E416
S11300E00E9433010E947F02089560E081E40E942F
S11300F03B0162E082E40E943B0161E081E40E94F2
S11301003F0161E082E40E943F0162E081E40E94D9
S11301103F0160E082E40E943F01089560E081E4D1
S11301200E943F0162E082E40E943F0162E081E4B8
S11301300E943F0160E082E40E943F01089560E074
S113014081E40E943F0162E082E40E943F0161E099
S113015081E40E943F0161E082E40E943F0162E089
S113016081E40E943B0160E082E40E943B01089527
S11301700E949C02E09160008E2F90E084319105F2
S113018008F070C0FC01E65DFF4F0C94D1020E94A0
S1130190750008950E948E0061E081E40E943F0191
S11301A061E082E40E943F0108950E948E0061E0B4
S11301B081E40E943B0161E082E40E943B010895D6
S11301C00E948E0061E081E40E943F0161E082E4CC
S11301D00E943F0108950E948E0061E081E40E9424
S11301E03B0161E082E40E943B0108950E948E007D
S11301F061E081E40E943F0161E082E40E943F01EA
S113020008950E949F0008950E948E0008950E9400
S11302108E0061E081E40E943B0161E082E40E947F
S11302203B0108950E948E0061E081E40E943F0139
S113023061E082E40E943F0108950E948E0061E023
S113024081E40E943B0161E082E40E943B01089545
S11302500E948E0061E081E40E943F0161E082E43B
S11302600E943F01089540E00E948F01089541E0FB
S11302700E948F01089541E00E940702089540E022
S11302800E9407020895809161008F5F809361004E
S11302908D3359F4809160008F5F809360001092D9
S11302A06100843111F41092600008950E9452009C
S11302B083E491E090936300809362000E94B8000D
S11302C0FDCF1F920F920FB60F9211242F933F93DD
S11302D04F935F936F937F938F939F93AF93BF934A
S11302E0EF93FF938091600085508A3038F00E942C
S11302F0A3020E949C0285E080936000FF91EF912D
S1130300BF91AF919F918F917F916F915F914F9129
S11303103F912F910F900FBE0F901F90189582342C
S113032029F118F4813439F008958334D1F18434F7
S113033009F452C00895413059F42AB381E090E0A1
S113034002C0880F991F6A95E2F7822B8ABB089531
S113035041115CC02AB381E090E002C0880F991F6C
S11303606A95E2F7809582238ABB0895413059F457
S113037027B381E090E002C0880F991F6A95E2F7E5
S1130380822B87BB0895411141C027B381E090E0DF
S113039002C0880F991F6A95E2F78095822387BB74
S11303A00895413059F424B381E090E002C0880FED
S11303B0991F6A95E2F7822B84BB0895411126C0E8
S11303C024B381E090E002C0880F991F6A95E2F798
S11303D08095822384BB0895413059F421B381E090
S11303E090E002C0880F991F6A95E2F7822B81BBC7
S11303F0089541110BC021B381E090E002C0880F41
S1130400991F6A95E2F78095822381BB089582340F
S113041029F118F4813439F008958334D1F1843406
S113042009F452C00895413059F42BB381E090E0AF
S113043002C0880F991F6A95E2F7822B8BBB08953F
S113044041115CC02BB381E090E002C0880F991F7A
S11304506A95E2F7809582238BBB0895413059F465
S113046028B381E090E002C0880F991F6A95E2F7F3
S1130470822B88BB0895411141C028B381E090E0EC
S113048002C0880F991F6A95E2F78095822388BB82
S11304900895413059F425B381E090E002C0880FFB
S11304A0991F6A95E2F7822B85BB0895411126C0F6
S11304B025B381E090E002C0880F991F6A95E2F7A6
S11304C08095822385BB0895413059F422B381E09D
S11304D090E002C0880F991F6A95E2F7822B82BBD5
S11304E0089541110BC022B381E090E002C0880F4F
S11304F0991F6A95E2F78095822382BB08958FB78E
S113050080688FBF8BB780648BBF85B78E7F85BFB4
S113051085B78D7F85BF089583B7816083BF83B717
S1130520846083BF83B7806883BF89B7816089BFD4
S11305308FB780688FBF089583B7816083BF83B707
S1130540846083BF089583B78E7F83BF83B78B7F17
S113055083BF08951F920F920FB60F9211242F9309
S11305603F934F935F936F937F938F939F93AF9337
S1130570BF93EF93FF93E0916200F09163000995BC
S1130580FF91EF91BF91AF919F918F917F916F9167
S11305905F914F913F912F910F900FBE0F901F903D
S11305A01895EE0FFF1F0590F491E02D0994F8942F
S10505B0FFCF77
S9030000FC
